:10000000780A0120750900007109000071090000DB
:100010007109000071090000710900000000000072
:100020000000000000000000000000007109000056
:100030007109000000000000710900007109000052
:1000400071090000710900007109000071090000C8
:1000500071090000710900007109000071090000B8
:10006000710900007109000071090000DD30000015
:100070007109000071090000710900007109000098
:100080007109000071090000710900007109000088
:100090007109000071090000710900007109000078
:1000A0007109000071090000710900007109000068
:1000B000710900007109000071090000A508000025
:1000C000DD080000F90800001509000031090000F2
:1000D0007109000071090000710900007109000038
:1000E000710900007109000000000000000000001C
:1000F00000000000892F0000710900007109000054
:100100007109000071090000710900007109000007
:1001100071090000710900007109000071090000F7
:1001200071090000710900007109000071090000E7
:1001300071090000710900007109000071090000D7
:1001400071090000710900007109000071090000C7
:1001500071090000710900007109000071090000B7
:1001600071090000710900007109000071090000A7
:100170007109000071090000710900007109000097
:100180007109000071090000710900007109000087
:100190007109000071090000710900007109000077
:1001A0007109000071090000710900007109000067
:1001B0007109000071090000710900007109000057
:1001C0007109000071090000710900007109000047
:1001D0007109000071090000710900007109000037
:1001E0007109000071090000710900007109000027
:1001F0007109000071090000710900007109000017
:100200007109000071090000710900007109000006
:1002100071090000710900007109000071090000F6
:1002200071090000710900007109000071090000E6
:1002300071090000710900007109000071090000D6
:1002400071090000710900007109000071090000C6
:1002500071090000710900007109000071090000B6
:100260007109000010B5054C237833B9044B13B164
:100270000448AFF300800123237010BD70000020FC
:1002800000000000106400000C4B43B10C480D4905
:1002900010B5AFF300800C48036823B910BD0A48BD
:1002A000036833B97047094B002BF7D0BDE8104005
:1002B0001847064B002BF5D0184700BF0000000080
:1002C00010640000740000201064000000000000B2
:1002D000F8B5824B98478248824EB047824B022540
:1002E000C3F80851814AC3F828214FF04040C3F8B1
:1002F000280193F8412102F0FB0283F8412193F891
:10030000412102F0FE0283F84121C3F814514FF459
:100310008061C3F80811764AC3F82821C3F8280180
:1003200093F84A2102F0FB0283F84A2193F84A210C
:1003300002F0FE0283F84A21C3F814114FF4C032D0
:100340006C4B1A636C48B0476C4A136943F40073F2
:1003500013616B4B198841F001021A801A886FF300
:1003600041021A8067485863674999631C8844F4BE
:1003700080721A801C8844F400721A801C8844F42D
:1003800080621A801C8844F400621A801C8844EA47
:1003900005021A805D4A4FF00044C2F88040BFF366
:1003A0004F8FBFF36F8FC2F880411460E02482F852
:1003B0001F430127C2F88470BFF34F8FBFF36F8FC5
:1003C000C2F88471576082F82043C2F88450BFF3AA
:1003D0004F8FBFF36F8FC2F88451556082F821436D
:1003E0004FF0040EC2F884E0BFF34F8FBFF36F8F5E
:1003F000C2F884E1C2F804E082F822434FF0080E0C
:10040000C2F884E0BFF34F8FBFF36F8FC2F884E16F
:10041000C2F804E082F8234300240460446084604E
:10042000C4600C604C608C60CC601A6C64F3410258
:100430001A641A6C3A431A6493F8452064F3010273
:1004400083F845201A6C4E2161F30E221A641A6C4F
:1004500065F315521A642E48B0472E4D4FF40D72B5
:10046000214628462C4B98473A462C4928462C4B87
:1004700098472C4B187018B101462B48B047FEE73F
:100480002A48184B9847012229492A482A4B98475D
:100490000146244B187018B12848124B9847EEE7D4
:1004A0002748104B9847274B2C2227492148274C97
:1004B000A04701461B4B187018B9224B1B682C2B08
:1004C00007D02348074CA0471E4B19682148A04776
:1004D000D5E72148034B984700244FE04D09000021
:1004E000785E0000D14D0000008000410200004015
:1004F00000040040002800438C5E0000000800401B
:1005000000A00041B0050020E005002000E100E06F
:100510009C5E000050010020C14D0000A85F00005B
:10052000C11F0000000A0020B45E0000CC5E000085
:10053000E45E00008403002025200000F45E00003B
:100540000C5F0000D005002000060020B52100004F
:10055000245F00003C5F0000585F00009A4B195D6B
:100560009A489B4B984704F00303032B00F0E88064
:1005700004F00F030F2B00F0E78001342B2CEDDD8E
:100580009448934CA0479448A0478F4D4FF4007671
:10059000324600212846914CA04732460021A81936
:1005A000A04700252C46002D4ED18D4B0022DA604D
:1005B0008C49996084495960596801F50071596006
:1005C0001988022060F309211980188840F48051AD
:1005D0001980188840F480611980198862F3CB2152
:1005E0001980198862F3420119801988012060F38B
:1005F000C4011980198862F34F3119808021598014
:10060000188840F001011980774B1A60774B93F8F6
:100610004E2042F0020283F84E2093F84D2042F023
:10062000010283F84D2093F84D2042F0020283F836
:100630004D204FF480616E4AC2F818111A6C42F0D6
:1006400002021A6404B12546002C00F08180664B3A
:100650001B68002BFBD0654B1A6C6FF341021A64C8
:100660000CB1002D5CD1002D49D15D4B0022DA6028
:100670005C4999605F495960596801F5007159609A
:100680001988022060F309211980188840F48051EC
:100690001980188840F480611980198862F3CB2191
:1006A0001980198862F3420119801988012060F3CA
:1006B000C4011980198862F34F3119808021598053
:1006C000188840F001011980474B1A60474B93F896
:1006D0004E2042F0020283F84E2093F84D2042F063
:1006E000010283F84D2093F84D2042F0020283F876
:1006F0004D201A6C42F002021A6404B12546002C07
:1007000045D0394B1B68002BFBD0384B1A6C6FF36C
:1007100041021A64002C3FF446AF002D3FF443AF72
:1007200035482B4CA0473548A0473548354B9847AE
:100730000146354B1870002872D03448A0479EE619
:100740002020334B984713E72248214B984714E762
:10075000304E33464FF40072264929482E4FB84791
:10076000294B18703168B1F5007FBFF470AF2B488A
:10077000174B9847326802F50073C2F500720021EA
:1007800011481844154B9847254601245FE7214E30
:1007900033464FF400720C4919481F4FB8471A4BA3
:1007A00018703168B1F5007FABD21C48084B9847F0
:1007B0003368C3F50072002103481844074B98477B
:1007C000254601249DE700BF00060020685F000069
:1007D000D14D0000B05E0000705F0000C14D000010
:1007E000B0050020302800438C00002000A000410C
:1007F0000080004100080020A45F0000AC5F000002
:10080000840300202D240000000A0020C45F0000A3
:10081000014E0000D0050020B52100008C5F0000D3
:100820001B481C4B98471C4A136C6FF3410313641D
:100830001A4B4FF00041C3F88010BFF34F8FBFF346
:100840006F8F0121C3F88410BFF34F8FBFF36F8FF9
:100850000221C3F88410BFF34F8FBFF36F8F0421C1
:10086000C3F88410BFF34F8FBFF36F8F0821C3F815
:100870008410BFF34F8FBFF36F8F13886FF3410363
:100880001380074B1A696FF349221A61F7E500BF1D
:10089000DC5F0000D14D000000A0004100E100E05D
:1008A000000800400A4A92F84E3043F0020382F8F2
:1008B0004E30084B4FF48062C3F814210222C3F873
:1008C0001821012004490860C3F81421704700BFB3
:1008D00000A00041008000418C00002008B5034BBF
:1008E00093F84E100248034B984708BD00A0004102
:1008F000EC5F0000D14D000008B5034B93F84E109B
:100900000248034B984708BD00A00041EC5F00007F
:10091000D14D000008B5034B93F84E100248034B2D
:10092000984708BD00A00041EC5F0000D14D0000D9
:1009300008B5034B93F84E100248034B984708BD87
:1009400000A00041EC5F0000D14D000008B5044B51
:100950009847044B9847044B9847044B984708BD69
:1009600039100000494A00006D4900000D0C0000DC
:10097000FEE7000008B5154B154A9A4209D0134B03
:10098000134A03E0116819600433043211498B42A1
:10099000F8D3114B02E000221A6004330F4A93424D
:1009A000F9D30F4B0F4A22F07F029A60D3F88820C8
:1009B00042F47002C3F88820BFF34F8FBFF36F8FEC
:1009C000094B9847094B9847FEE700BF00000020FD
:1009D000106400006C00002070000020740A0020E9
:1009E00000ED00E000000000794D0000D1020000A1
:1009F00010B504460B4B9847012804D028B10228B3
:100A00000DD0012010BD032010BD2046064B984795
:100A100010F0030F01D1022010BD002010BD0220F4
:100A200010BD00BFB94500000146000038B50446BE
:100A30000D46044B98474000013828602046024B81
:100A4000984738BD25460000F109000010B514464E
:100A500001220B4B984718B102280FD1022010BD7C
:100A600001212046074B984708B1012010BD064BD5
:100A7000984708B9002010BD012010BD012010BD0D
:100A8000C14600005D470000A947000010B51446AC
:100A900001220B4B984718B102280FD1022010BD3C
:100AA00001212046074B984708B1012010BD064B95
:100AB000984708B9002010BD012010BD012010BDCD
:100AC00019480000B94800000549000038B505463E
:100AD0000024012C07DC2846084B984703460328CE
:100AE00001D10134F5E70BB1012038BD2846044B94
:100AF000984708B1042038BD002038BDF109000036
:100B00004946000008B5054B984718B1022803D0A4
:100B1000012008BD002008BD032008BDF109000028
:100B20002DE9F04182B00746884615461C4601A9CA
:100B30000D4B984726462C44019B01339C4203D918
:100B4000F32002B0BDE8F0810024B44208D208EBE3
:100B5000442261193846054B984718B90134F4E727
:100B60000020EEE7FF20ECE72D0A00004D0A000010
:100B70002DE9F04182B00746884615461C4601A97A
:100B80000D4B984726462C44019B01339C4203D9C8
:100B9000F32002B0BDE8F0810024B44208D208EB93
:100BA000442261193846054B984718B90134F4E7D7
:100BB0000020EEE7FF20ECE72D0A00008D0A000080
:100BC00010B582B01446032919D8DFE801F01207E6
:100BD0000F0201231360002002B010BD01A9094BD0
:100BE0009847019B013323600020F5E70020107037
:100BF000F2E7054B98470028EED0E320ECE7F3201E
:100C0000EAE700BF2D0A0000F1090000704700006C
:100C100010B4424B4FF400729A60414999624FF010
:100C2000404199625A6193F8492002F0FB0283F82F
:100C3000492093F8492002F0FE0242F0010283F8B5
:100C4000492093F8342002F00F0242F0900283F81A
:100C500034204FF40032C3F888204FF08040C3F8AE
:100C6000A800304CC3F8A840C3F8942093F8D120D2
:100C700002F0FB0283F8D12093F8D12002F0FE02AB
:100C800042F0010283F8D12093F8B82002F00F025D
:100C900042F0900283F8B8204FF48032C3F88820E5
:100CA000C3F8A8002048C3F8A800C3F8942093F81C
:100CB000D02002F0FB0283F8D02093F8D02002F07D
:100CC000FE0242F0010283F8D02093F8B82002F02F
:100CD000F00242F0090283F8B8204FF400629A60F3
:100CE0001248986299625A6193F84B2002F0FB0215
:100CF00083F84B2093F84B2002F0FE0242F00102F1
:100D000083F84B2093F8352002F00F0242F0900256
:100D100083F835205DF8044B704700BF0080004128
:100D200000020040020000C0010000C000080040B6
:100D3000054A136A43F480631362044B4222C3F8EA
:100D40002C21C3F83021704700080040001C0040EF
:100D5000F8B50B4B98470B4F0B4C002239462046F9
:100D60000A4EB04720460A4CA0470A4D0122394698
:100D70002846B0472846A047074B9847F8BD00BF14
:100D8000310D000000280043580A00207D26000095
:100D9000B9260000500A0020110C0000024A5369D5
:100DA00043F40073536170470008004008B5034BDB
:100DB000984703490348044B984708BD9D0D000020
:100DC00000240040300A0020DD250000104B93F87D
:100DD000D92002F0FE0242F0010283F8D92093F8F4
:100DE000BC2002F00F0242F0300283F8BC2093F8DE
:100DF000D82002F0FE0242F0010283F8D82093F8D6
:100E0000BC2002F0F00242F0030283F8BC207047DD
:100E100000800041064B4122C3F8DC204322C3F886
:100E20008C20044A936943F400739361704700BFB8
:100E3000001C00400008004008B5054B9847002200
:100E400004490548054B9847054B984708BD00BF26
:100E5000150E000000200141080A0020BD2A0000F4
:100E6000CD0D0000F0B45E4B4FF4001098604FF0D1
:100E700080429A625B4C9C62586193F8551001F075
:100E8000FB0183F8551093F8551001F0FE0141F075
:100E9000010183F8551093F83A1001F00F0141F069
:100EA000800183F83A104FF480159D609A624E4E8F
:100EB0009E625D6193F8541001F0FB0183F85410B9
:100EC00093F8541001F0FE0141F0010183F8541031
:100ED00093F83A1001F0F00141F0080183F83A105C
:100EE0004FF48021C3F88810C3F8A8203F4FC3F8FF
:100EF000A870C3F8941093F8D21001F0FB0183F8A6
:100F0000D21093F8D21001F0FE0141F0010183F8F4
:100F1000D21093F8B91001F0F00141F0080183F804
:100F2000B9104FF40021C3F88810C3F8A820043783
:100F3000C3F8A870C3F8941093F8D31001F0FB0124
:100F400083F8D31093F8D31001F0FE0141F00101B2
:100F500083F8D31093F8B91001F00F0141F080012C
:100F600083F8B910C3F88850C3F8A820C3F8A86064
:100F7000C3F8945093F8D41001F0FB0183F8D41017
:100F800093F8D41001F0FE0141F0010183F8D41070
:100F900093F8BA1001F0F00141F0080183F8BA109B
:100FA000C3F88800C3F8A820C3F8A840C3F8940089
:100FB00093F8D52002F0FB0283F8D52093F8D520D2
:100FC00002F0FE0242F0010283F8D52093F8BA2025
:100FD00002F00F0242F0800283F8BA20F0BC7047A2
:100FE00000800041200000C0100000C0040000C0CC
:100FF000054A136943F480331361044B4122C3F85B
:101000003821C3F88C20704700080040001C0040C5
:1010100008B5054B98474FF08C410448044B98475E
:10102000044B984708BD00BFF10F0000180A0020CC
:1010300049270000650E000008B51B4B98471B4B65
:101040004FF48012C3F884211949C3F8A811194A32
:10105000C3F8A82193F8D42102F0FB0283F8D4212D
:1010600093F8D42102F0FE0283F8D4214FF4001249
:10107000C3F88421C3F8A8110F4AC3F8A82193F834
:10108000D52102F0FB0283F8D52193F8D52102F097
:10109000FE0283F8D521094B9847094B9847094B25
:1010A0009847094B984708BD992B000000800041E4
:1010B00000000240100002C0200002C0510D0000DC
:1010C000AD0D0000390E00001110000004E00A7898
:1010D0000270013101301A46531E002AF7D17047C1
:1010E00002E0017001301A46531E002AF9D1704700
:1010F00070B40346002001E029463346541E32B145
:101100005E1C18784D1C0B782246C01AF4D070BCB7
:10111000704700E0013003780BB18B42FAD11846DA
:101120007047CA7E8B7E43EA02230278032A01D0ED
:1011300018467047487D0A7D42EA002243EA02438E
:10114000F6E78176C1F30723C376090C0175090A16
:10115000417570472DE9F84F89460C6800E001346D
:1011600023782F2BFBD05C2BF9D087690B22202111
:1011700038464E4B984723782E2B19D000263346FD
:101180004FF00808B24603F1010BE55C202D5AD957
:101190002F2D58D05C2D56D02E2D01D0B0452ED8F5
:1011A000B8F1080F7CD12E2D21D00620BDE8F88F94
:1011B0000022511CA35C2E2B04D1022902D8BB545F
:1011C0000A46F6E72F2B06D05C2B04D0202B02D941
:1011D0000620BDE8F88F2144C9F80010202B04D95F
:1011E0002023FB720020BDE8F88F2423F9E74FEAA3
:1011F0008A0A5FFA8AFA46464FF00B0811E015F0AA
:10120000800F10D129462A482A4B984700284AD1F6
:10121000A5F14103DBB2192B0BD84AF0020ABD55E8
:1012200001365B46AFE74AF0030A803D224B5D5D25
:10123000E8E7A5F16103DBB2192BF0D84AF0010A07
:10124000203DEDB2EBE75C44C9F80040202D04D806
:10125000042326B90620BDE8F88F0023F9E73A7881
:10126000E52A0FD0B8F1080F0FD00AF00302012AC7
:1012700010D00AF00C0ABAF1040F0ED0FB72002055
:10128000BDE8F88F05223A70ECE74FEA8A0A5FFA68
:101290008AFAEAE743F01003EBE743F00803EDE7CF
:1012A0000620BDE8F88F0620BDE8F88FE1100000A9
:1012B000B46000001311000004600000016809B16F
:1012C0000A4603E04FF0FF3309E001321378202B88
:1012D00001D93A2BF9D13A2B03D00E4B1B78184683
:1012E000704710B44C1C0B78303B092B09D8A24234
:1012F0000AD1042B0BD80132026018465DF8044B6A
:1013000070474FF0FF33F8E74FF0FF33F5E74FF04A
:10131000FF33F2E7D000002003790BB900207047BB
:101320002DE9F0410446076B00F1340801233A46E9
:10133000414640780F4DA847B0B900232371636A36
:10134000FB1AE269934212D2E57808E0E3691F4490
:1013500001233A4641466078064EB047013D012DD3
:10136000F4D80020BDE8F0810120BDE8F081002024
:10137000BDE8F081710B0000F8B5036B8B4214D00F
:1013800004460D460A4B9847064608B13046F8BD5C
:1013900001232A4604F134016078064FB84710B1A2
:1013A00001264FF0FF352563F0E70026EEE700BF8A
:1013B00019130000210B000010B50446002303712F
:1013C0004FF0FF3303631E4B984708B1032010BD55
:1013D00094F8332294F8323243EA02231BB2194ABA
:1013E000934201D0022010BD94F86D2094F86C3027
:1013F0001B0443EA026394F86B2043EA022394F847
:101400006A20134323F07F430F4A934215D094F888
:10141000892094F888301B0443EA026394F88720FB
:1014200043EA022394F88620134323F07F43064ABD
:10143000934201D0012010BD10BD002010BD00BF9F
:101440007913000055AAFFFF46415400B0B108B51A
:101450000368ABB1197809B9092008BDD988828819
:10146000914201D0092008BD5878064B984710F0EA
:10147000010F01D0092008BD002008BD09207047D8
:10148000092008BD050B0000F0B585B006461746DB
:10149000002303600846C54B9847051EC0F298819B
:1014A000C34B03EB85035C68002C00F0948134602F
:1014B00023787BB16078BF4B984710F0010F09D1BA
:1014C000002F00F08A8110F0040F01D00A2080E183
:1014D00000207EE100232370E8B26070B64B98478D
:1014E00010F0010F01D0032073E127B110F0040FB9
:1014F00001D00A206DE100212046B04B9847012819
:1015000024D00026032800F06A81002834D00D2062
:101510005FE1002304AA02EB810242F8103C013192
:10152000032915D804F134030A0102F5DF721344CC
:101530001A79002AEDD0D87A9A7A120442EA006227
:10154000587A42EA00221B7A1343E3E70021E7E7D7
:10155000002508E031462046984B98470028D1D016
:101560000135032DCED804AB03EB850353F8106C83
:10157000002EEFD10220F1E794F8402094F83F309C
:1015800043EA02231BB2B3F5007F01D00D2020E116
:1015900094F84B3094F84A2052EA03220DD194F883
:1015A0005B3094F85A20120442EA036294F85930EE
:1015B00042EA032294F858301A43E26194F8441046
:1015C000E1704B1EDBB2012B01D90D2001E101FBC3
:1015D00002F194F84150A5700DB90D20F9E06B1E91
:1015E0001D4201D00D20F4E094F8463094F84500F7
:1015F00040EA0320208110F00F0F40F0F28094F8B1
:10160000487094F8473053EA07230DD194F8577087
:1016100094F856301B0443EA076394F8557043EA84
:10162000072394F854703B4394F843E094F84270D5
:1016300057EA0E2700F0D78001EB070E0EEB101EC5
:101640007345C0F0D280A3EB0E03B3FBF5F3002B80
:1016500000F0CD8040F6F575AB4200F29780012591
:101660004FF6F57C634500D903250233A36126625A
:1016700037446762B644C4F82CE0032D40F08880FC
:10168000002840F0B68094F8630094F862100904D2
:1016900041EA006194F8610041EA002194F8600099
:1016A0000143A1629B0003F2FF13B2EB532FC0F082
:1016B000A4804FF0FF332361E36080236371032D27
:1016C0005AD194F8652094F8643043EA02231BB29F
:1016D000012B51D1711C2046394B984700284BD122
:1016E0000023637194F8332294F8323243EA0223E0
:1016F0001BB2344A93423FD194F8372094F83630E5
:101700001B0443EA026394F8352043EA022394F869
:10171000342013432C4A93422ED194F81B2294F880
:101720001A321B0443EA026394F8192243EA0223A3
:1017300094F818221343254A93421DD194F81F228E
:1017400094F81E321B0443EA026394F81D2243EA14
:10175000022394F81C221343236194F8232294F863
:1017600022321B0443EA026394F8212243EA022353
:1017700094F820221343E36025700D4A138B013344
:101780009BB21383E3800020606122E0022567E7BB
:1017900088B33944A162022D01D15B0083E703EBDA
:1017A000430103F0010303EB51037CE7BD1200008A
:1017B000D0000020050B0000CD0A0000B913000086
:1017C0007913000055AAFFFF5252614172724161C4
:1017D0000B2005B0F0BD0C20FBE70020F9E701204D
:1017E000F7E70D20F5E70D20F3E70D20F1E70D20D9
:1017F000EFE70D20EDE70D20EBE70D20E9E700BF57
:1018000070B504462D4B9847054648B92378032BFD
:1018100008D0002211466078294B984700B1012575
:10182000284670BD6379012BF3D104F134064FF4DF
:10183000007200213046234B9847552384F83232FA
:10184000AA2384F83332522384F8343084F83530B4
:10185000612384F83630412284F83720722184F8DD
:10186000181284F8191284F81A2284F81B3223699A
:1018700084F81C32C3F3072284F81D22C3F3074205
:1018800084F81E221B0E84F81F32E36884F820328D
:10189000C3F3072284F82122C3F3074284F82222EB
:1018A0001B0E84F82332226A01322263012331465F
:1018B0006078054EB04700236371AAE71913000052
:1018C000C10B0000E1100000710B000002398369B8
:1018D000023B994204D28378C06A03FB010070473F
:1018E0000020704701296DD9F8B5836999426BD200
:1018F0000C4606460378022B2FD0032B43D0012B36
:1019000001D00120F8BD01EB5105416A01EB5521E1
:101910002E4B984710B14FF0FF30F8BD6F1CC5F348
:101920000805354495F83450716A01EB572130466B
:10193000264B984710B14FF0FF30F8BDC7F30800B1
:10194000304490F8340045EA002014F0010F01D033
:101950000009F8BDC0F30B00F8BD416A01EB14218A
:101960001A4B984710B14FF0FF30F8BD610001F4F9
:10197000FF7101F1300333445B79701890F8340043
:1019800040EA0320F8BD416A01EBD4110F4B9847A0
:1019900010B14FF0FF30F8BDA00000F4FE7000F170
:1019A00030023244D179937904321B0443EA016353
:1019B000527843EA0223304490F83400184320F070
:1019C0007040F8BD012070470120F8BD7913000078
:1019D000F8B50546C1808468012C3CD00E460368EA
:1019E0009A69944201D30220F8BD14B91A78032AE7
:1019F00005D05CB91A89964203D30220F8BD9C6ACF
:101A0000F7E7986AEC60D0B90220F8BD9F783F01F3
:101A1000BE420FD321462868134B98470446B0F1C5
:101A2000FF3F1AD001281AD92B689B69984218D217
:101A3000F61BEDE7214628680C4B9847E2E700EBE0
:101A4000161028612B68343306F00F0603EB461698
:101A50006E610020F8BD0220F8BD0120F8BD022013
:101A6000F8BD0220F8BD00BFE5180000CD18000049
:101A7000012940F291808369994201D302238CE0CD
:101A80002DE9F04116460C4605460378022B48D056
:101A9000032B5DD0012B03D002231846BDE8F08153
:101AA00001EB5107416A01EB57213D4B9847034633
:101AB0000028F2D107F10108C7F3080714F0010468
:101AC00022D0EB1993F9343003F00F03320102F402
:101AD0007F621343DBB22F4487F8343001232B712C
:101AE000696A01EB582128462D4B98470346002888
:101AF000D3D1C8F308084CB1C6F30712A84488F83C
:101B0000342001222A71C8E7F3B2E4E705EB0802AA
:101B100092F9342022F00F02C6F303263243D2B2E8
:101B2000ECE7416A01EB14211D4B9847034600285E
:101B3000B3D1610001F4FF7101F130002844294460
:101B400081F83460C6F30722427101222A71A4E7AA
:101B5000416A01EBD411124B9847034600289CD1EF
:101B6000A10001F4FE7101F130002844C4798279AA
:101B7000120442EA0462294402F07042324381F8BE
:101B80003420C2F307214171C2F307418171120E63
:101B9000C27101222A7180E702231846704700BFF4
:101BA00079130000F8B505460F4631B9C6688EB105
:101BB00083699E420FD301260DE0294B98470346C7
:101BC000012844D9B0F1FF3F46D0AA69904243D3DF
:101BD0003E4600E0012634460CE021462846204BD4
:101BE0009847034670B1B0F1FF3F35D0012833D09C
:101BF000B44230D00134AB699C42EED3012E28D9D7
:101C00000224EAE76FF0704221462846154B9847B8
:101C1000034600B96FB99BB9EC602B69B3F1FF3F84
:101C20001CD0013B2B616B7943F001036B712346A0
:101C300012E02246394628460A4B98470346EAE70F
:101C4000012B01D0012307E04FF0FF3304E0012313
:101C500002E0002300E000231846F8BD2346FBE71E
:101C6000E5180000711A00002DE9F843C48801341A
:101C7000A3B213B90420BDE8F883036913B90420A3
:101C8000BDE8F8830E46054614F00F0710D1013366
:101C90000361C16831B903681B899C4208D30420E1
:101CA000BDE8F88300688378013B13EA141808D074
:101CB000EC802B68343303EB47136B610020BDE8E5
:101CC000F8832F4B98478146012846D9B0F1FF3F52
:101CD00046D028688369994537D316B90420BDE8F2
:101CE000F883E968274B9847814610B90720BDE87B
:101CF000F883012837D0B0F1FF3F37D02868224B56
:101D00009847002835D128684FF4007200213430FC
:101D10001E4B98472E68494630461D4B9847306306
:101D20002B689A7890450CD201221A712868164BBC
:101D3000984708BB2A68136B0133136308F1010845
:101D4000EEE71A6BA2EB08021A63C5F80C9049463D
:101D500028680F4B98472861AAE70220BDE8F8835E
:101D60000120BDE8F8830220BDE8F8830120BDE82A
:101D7000F8830120BDE8F8830120BDE8F88300BFA7
:101D8000E5180000A51B000019130000E110000079
:101D9000CD18000038B504460021124B984705467F
:101DA00040B1284638BD002120460F4B98470546D4
:101DB0000028F6D1216920680C4B98470546002879
:101DC000EFD16069037853B1C37A13F0080FEAD1F9
:101DD0000B22A169064B98470028E4D1E1E70425CE
:101DE000DFE700BFD1190000691C00007913000073
:101DF000F110000030B583B0044601910B782F2B11
:101E000010D05C2B0ED003685B698360019B1B784C
:101E10001F2B1FD8002120461F4B98470546002343
:101E200063612FE0013101910023A360EEE713F01D
:101E3000040F01D1052525E0054623E013F0040F2A
:101E400025D16169CB7A13F0100F22D02068134B93
:101E50009847A06001A92046114B9847054688B9CC
:101E60002046104B9847A369DB7A0028E6D0042867
:101E70000BD113F0200FDAD00022A260626113F0C0
:101E8000040FE7D0284603B030BD0546FAE7054603
:101E9000F8E70525F6E700BFD1190000231100007F
:101EA00055110000951D000070B504460E46002136
:101EB000114B98470246C0B9002508E00135B542EC
:101EC00013D0012120460D4B9847024668B921697D
:101ED00020680B4B9847024638B963691B78E52B9D
:101EE000ECD0002BEAD00025EBE7042A01D0104605
:101EF00070BD0722FBE700BFD1190000691C00007C
:101F00007913000038B5054601210D4B984704466A
:101F100008B1204638BD296928680A4B984704460D
:101F20000028F6D1202200216869074B98470B2230
:101F3000A9696869054B98472B6801221A71E8E77F
:101F4000A91E000079130000E1100000CD10000070
:101F5000F8B5012929D904460D468369994201D370
:101F6000022723E0002700E03546A3699D421DD2E9
:101F700029462046104B98470646B8B1012817D08D
:101F8000B0F1FF3F16D00022294620460B4B984760
:101F9000074658B92369B3F1FF3FE5D00133236108
:101FA000637943F001036371DEE702273846F8BD29
:101FB0000227FBE70127F9E7E5180000711A000086
:101FC00010B584B001900091144604A840F8041D97
:101FD000114B984700281ADB104B03EB80035B681A
:101FE0000BB100221A70019B0BB100221A70019AEA
:101FF0000A4B03EB8000426062B1012C01D000204B
:1020000006E00022694601A8054B984700E00B2036
:1020100004B010BD0020FBE7BD120000D00000207E
:10202000891400002DE9F0438DB00191002800F0E3
:10203000AB80044615460023036002F01F0802F03F
:102040001E0201A905A8534B98470646002840F0F8
:102050009C8002AB0B93019905A84F4B98470A9FB0
:10206000064608B9002F38D015F01C0F7CD0002E82
:102070003AD0042E33D048F008080A9F16B918F059
:10208000080F3CD146B918F0080F01D048F02008DD
:10209000059B1B6BE3612762002E76D184F80680D6
:1020A0004FF0000884F80780059D394628463B4BD1
:1020B00098472061FA7FBB7F1B0443EA02637A7F63
:1020C00043EA02233A7F1343E360C4F80880C4F86C
:1020D00018802560EB88A38057E00626C4E705A892
:1020E0002F4B98470646C6E7FB7A13F0110F04D131
:1020F00015F0040FC2D00826C0E70726BEE7294B1B
:102100009847C1B2B973C0F30722FA73C0F307430B
:102110003B74000E7874B975FA753B7678760025B5
:10212000FD723D777D77BD77FD77394605981B4B6E
:1021300098478146294638461B4B98470598012306
:102140000371B9F1000F9DD0056B4946174B9847B5
:102150000646002896D1059809F1FF33C360294649
:10216000134B984706468DE7002E8BD1FB7A13F070
:10217000100F07D115F0020F84D013F0010F81D09A
:1021800007267FE704267DE7092630460DB0BDE827
:10219000F08300BF89140000F51D0000231100002A
:1021A000051F00005924000043110000511F0000CA
:1021B000791300002DE9F04F83B004468846164697
:1021C00099460023C9F80030634B9847019048B9FD
:1021D000E379002B40F0BE80A37913F0010F05D105
:1021E00007230193019803B0BDE8F08FE368A2686C
:1021F0009B1AB34263D21E4661E06169574B984710
:102200006EE04FF0020A84F807A0CDF804A0E9E7D9
:102210004FF0010A84F807A0CDF804A0E2E74FF0E0
:10222000020A84F807A0CDF804A0DBE74FF0010A0A
:1022300084F807A0CDF804A0D4E74FF4007204F1AD
:10224000240108EB4020464B984773E0A269924571
:102250001AD0A37913F0400F0CD0012304F124010C
:102260009BF801003F4DA847002865D1A37923F0D2
:102270004003A371214651F8240B012352464078B4
:10228000394DA84700285ED1C4F818A0A168C1F351
:102290000801C1F50075AE4200D235462031214417
:1022A0002A46043140462E4B9847A844A3682B4445
:1022B000A360D9F800302B44C9F80030761B002EFB
:1022C00090D0A368C3F30802002ADFD12068877882
:1022D000013FFFB217EA532708D1002B8DD12069A7
:1022E00001288ED9B0F1FF3F92D06061D4F800B0E0
:1022F000616958461D4B9847824600288FD0BA44E2
:10230000750AA3D07B199BF80220934200D9D51BF4
:10231000EBB2524641469BF80100134FB8470028E4
:1023200084D1A37913F0400F04D0A069A0EB0A0078
:10233000854282D86D02B8E74FF0010A84F807A001
:10234000CDF804A04EE74FF0010A84F807A0CDF8BD
:1023500004A047E7019345E74D140000E51800008D
:10236000CD100000710B0000210B0000CD18000003
:1023700038B50446274B98470346D0B9A27912F0E6
:10238000200F16D012F0400F0DD0214651F8240B2B
:102390000123A2694078204DA847002837D1A379AE
:1023A00023F04003A371E16920681C4B9847034662
:1023B00008B1184638BD256AEB7A43F02003EB726A
:1023C000237B2B77A3891B0A6B77A37BAB77E37BFC
:1023D000EB7721692846124B9847124B9847A8750E
:1023E000C0F30723EB75C0F307432B76000E687626
:1023F0000023AB74EB74A37923F02003A37123684B
:1024000001221A712068084B98470346D1E701233F
:10241000CFE700BF4D140000710B000079130000DE
:1024200043110000592400000118000010B50446B3
:10243000074B9847034608B1184610BD2046054B88
:10244000984703460028F7D100222260F4E700BF36
:10245000712300004D14000000B583B069460F4899
:102460000F4B9847BDF80630A3F2BC709DF80530BD
:102470005B0543EA40639DF8040043EA00439DF88E
:10248000020043EAC0239DF8010043EA40139DF88F
:102490000000184303B05DF804FB00BF300A0020C1
:1024A00021260000EFF31083036072B6BFF35F8F45
:1024B0007047BFF35F8F036883F31088704710F095
:1024C000030F01D1012070470020704710B50C4662
:1024D00080B2144B984780B1013C0B2C07D8DFE841
:1024E00004F01D081D0A1D0A1D1D0A1D0A1D0020DD
:1024F00010BD0D4810BD0D4810BD013C0B2C07D878
:10250000DFE804F00E080E0A0E0A0E0E0A0E0A0E7E
:10251000002010BD064810BD044810BD054810BD80
:10252000044810BDBF240000803B2600008D27001A
:1025300000EA240080DE28002DE9F0410C46904698
:10254000866904E0204B9C4209D3E41A0136B7B2F5
:1025500038461E4B98470028F4D01D4BF3E7012561
:10256000294630461B4B9847844203D3241A013531
:10257000EDB2F5E70121184B9C4206D9A4F5A83429
:10258000A4F5C0740131C9B2F5E70022B4F5616F5A
:1025900004D3A4F561640132D2B2F7E700233B2CE7
:1025A00003D93C3C0133DBB2F9E7A8F8067088F8A0
:1025B000055088F8041088F8022088F8013088F85F
:1025C00000400020BDE8F0818033E101BF2400001D
:1025D0000085E201CD2400007F51010038B50D4691
:1025E00004464FF4E0720B49003018BF01200A4B3B
:1025F00098472368AB4208D04BB925602046074B6B
:10260000984740F2B273A36138BD002038BD6FF027
:10261000110038BDF8600000352B000005300000C7
:1026200038B50D46044640F23B220849003018BF39
:102630000120074B98472046064B98472A460146FB
:102640002046054B9847002038BD00BFF8600000C9
:10265000352B0000A93000003925000010B5044BCF
:102660001C68044B984701462046034B984710BD11
:10267000EC000020792B0000912B000070B50C4677
:102680001646054680B169B1012029220749084B49
:102690009847324621462846064B9847002800DBDB
:1026A000002070BD0020F0E70020EEE7146100007C
:1026B000352B0000A92C000010B504463F22054927
:1026C000003018BF0120044B98472046034B984721
:1026D00010BD00BF14610000352B0000352E000036
:1026E00070B50D461646044668B151B1012034223A
:1026F0000649074B984723683246294620469847A3
:1027000070BD0020F3E70020F1E700BF3C6100004E
:10271000352B000070B50D461646044668B151B120
:1027200001203D220649074B9847636832462946F7
:102730002046984770BD0020F3E70020F1E700BF76
:102740003C610000352B000038B50C46054660B1F1
:1027500049B1012031220649064B984721462846B7
:10276000054B984738BD0020F4E70020F2E700BF92
:1027700050610000352B00001D330000F0B583B020
:102780000D4616461F46044644220849003018BF2D
:102790000120074B98479DF8203000933B46324676
:1027A00029462046034CA04703B0F0BD506100000D
:1027B000352B00008533000038B50D4604464D2208
:1027C0000549003018BF0120044B98472946204690
:1027D000034B984738BD00BF50610000352B000007
:1027E0001934000038B50D4604465622054900301C
:1027F00018BF0120044B984729462046034B9847B1
:1028000038BD00BF50610000352B00001D340000B2
:1028100010B5044660220549003018BF0120044B62
:1028200098472046034B984710BD00BF50610000F9
:10283000352B00002734000010B5044669220549F5
:10284000003018BF0120044B98472046034B98479F
:1028500010BD00BF50610000352B00003134000076
:1028600070B50D461646044672220649003018BF60
:102870000120054B9847324629462046034B98478E
:1028800070BD00BF50610000352B000069340000AE
:1028900010B504467B220549003018BF0120044BC7
:1028A00098472046034B984710BD00BF5061000079
:1028B000352B0000C134000038B50C46054660B128
:1028C00049B1012084220649064B984721462846F3
:1028D000054B984738BD0020F4E70020F2E700BF21
:1028E00050610000352B0000ED340000F0B583B0DE
:1028F0000D4616461F46044690220A49003018BF6E
:102900000120094B98479DF824300193BDF82030F1
:1029100000933B46324629462046044CA04703B06C
:10292000F0BD00BF50610000352B000045350000B0
:1029300070B50C461646054668B151B10120B52266
:102940000649074B9847324621462846054B98478B
:1029500070BD0020F3E70020F1E700BF50610000E8
:10296000352B00005D38000070B50C461646054654
:1029700068B151B10120BE220649074B9847324643
:1029800021462846054B984770BD0020F3E70020FC
:10299000F1E700BF50610000352B00001139000045
:1029A00010B50446C7220549003018BF0120044B6A
:1029B00098472046034B984710BD00BF5061000068
:1029C000352B00009139000010B50446D02205498E
:1029D000003018BF0120044B98472046034B98470E
:1029E00010BD00BF50610000352B0000B939000058
:1029F000F8B50E461746054608B311B31ABB0020BA
:102A0000F1221249124B984705F108042046114B58
:102A100098470028F8D00025715D20460E4B984756
:102A200020460C4B98470028FAD00135BD42F3D31D
:102A300020460A4B98470028FAD02846F8BD0020C7
:102A4000DEE70020DCE70120DAE700BF6C61000070
:102A5000352B0000B33B0000A53B0000BD3B000050
:102A60002DE9F0410F4690460546C8B1D1B1DAB91B
:102A700000204FF486720D490D4B9847002605F152
:102A8000080420460B4B98470028F8D020460A4BF4
:102A90009847B85501364645F1D33046BDE8F08138
:102AA0000020E6E70020E4E70120E2E76C61000097
:102AB000352B0000C73B0000AB3B000038B50D468E
:102AC0000446A0B189B1012034220A490A4B984733
:102AD000294604F10800094B9847034618B9084AEB
:102AE0006260084A2260184638BD0020ECE70020EA
:102AF000EAE700BF6C610000352B0000653B000079
:102B0000612A0000F129000010B50446532206494D
:102B1000003018BF0120054B984704F10800044B12
:102B20009847002010BD00BF6C610000352B0000ED
:102B3000913B000000B900BE704700000346064A02
:102B4000126822B1044A10680344136070470349B5
:102B5000014A1160F6E700BFF0000020780A01206A
:102B60004FF0FF3070474FF400534B600020704728
:102B70000120704700207047C0EBC00000EB001040
:102B80000230024BA3FB003040087047ABAAAAAA50
:102B90000139FDD8704700BF08B5084A13889BB2B9
:102BA0001380074B9847074B9847074B9847074BAD
:102BB000984740F6FF70064B984708BD004000411B
:102BC000D52E0000012F0000C92E0000052F0000A7
:102BD000D52B000010F0010F08D0174A174B1A62CE
:102BE000164B5A6843F6FD731A42F9D110F0020FE2
:102BF00008D0134A114B5A62104B5A6843F6FD73C2
:102C00001A42F9D110F0040F08D00E4A0B4B9A6209
:102C10000A4B5A6843F6FD731A42F9D110F0080FB7
:102C200008D0094A054BDA62044B5A6843F6FD7333
:102C30001A42F9D1704700BF07030100001C004091
:102C400007030A000803080005030100002070477D
:102C5000002323B100207047094808440DE010B458
:102C600003EB83029100064A0A44527C8242F3D06D
:102C70000133DBB2002BF3D000205DF8044B70472A
:102C80008861000001EB4001012303FA01F1054BCB
:102C90001868014203D101431960012070470020E8
:102CA000704700BFF40000202DE9F04F83B00746C5
:102CB0000C461646594B93E803000090ADF80410FB
:102CC000090C8DF80610BFB1A4B10120C8225449E7
:102CD000544B98472046544B98478246534B98474D
:102CE00080465EB1B31C50F8233013F0200F2CD176
:102CF000002504E00020E9E70020E7E70025EDB229
:102D000098F810200423AB404FF0100909FA06F997
:102D100043EA090303EA0201238B13F03F0F72D148
:102D2000238B03F03303002BFAD194F800B05FFA41
:102D30008BFB02F00D02052A09D00D2A07D011EAFB
:102D40000B0F07D06FF0100055E00125D7E71BEA05
:102D5000090F5BD131465046354B9847002858D073
:102D6000238BDBB2002BFBD1238B03F03303002B2F
:102D7000FAD12278C2F3400262B1237803F0FD0356
:102D80002370238B03F03303002BFAD1238BDBB2A8
:102D9000002BFBD13C607B7966F3000365F34103B4
:102DA0007B7198F8103019EA030F0CBF0121002144
:102DB0007B7961F382036FF3C3037B71AB1C58F81B
:102DC0002330C3F3022302A90B4413F8083C3B71E0
:102DD000A6B9023658F82630236258F8253004EB9D
:102DE00085056B60C2B184F800B0238B03F0330318
:102DF000002BFAD1002003B0BDE8F08F023658F85E
:102E000026306362E9E76FF01000F4E76FF010001E
:102E1000F1E76FF01100EEE70020ECE79C610000A5
:102E2000C8610000352B00004D2C0000512C000023
:102E3000852C000010B5044660B3036843B301203D
:102E40004FF489721E491F4B98472268138B13F069
:102E50003F0F2ED1637913F0040F1DD0C3F340034D
:102E600004219940C9B2138B03F03303002BFAD12C
:102E70001378DBB231EA03001ED0194341F002019E
:102E80001170138B03F03303002BFAD1002010BD17
:102E90000020D5E70020D3E76379C3F34000042185
:102EA0008140C9B203F0010010238340DBB2194313
:102EB000D9E76FF0100010BD6FF0110010BD00BF1A
:102EC000C8610000352B00000122014B5A71704788
:102ED00000080040094B44F20E029A8200229A75C3
:102EE000DA75DA6902F47C52DA61044BDB6813F0BC
:102EF000010FFAD00022014B1A74704700140040F1
:102F00007047000040F64D621E4B5A631D4BDB6B51
:102F100013F0060FFAD11B4B4FF403629A6302229F
:102F200083F83020174BDB6B13F0020FFAD140F619
:102F3000B732144B9A64134B1B6D13F0060FFAD182
:102F4000104B4FF40362DA64022283F844200D4BE5
:102F50001B6D13F0020FFAD10A4B1B6C13F0010F1B
:102F600004D1084B1B6C13F0020FF5D0054B5B6DC1
:102F700013F0010F04D1034B5B6D13F0020FF5D07A
:102F8000704700BF0010004000B583B00D4B9B7828
:102F9000DBB20193019B13F0020F06D00A4B1B68B2
:102FA0001BB1084A5068984709E0019B13F0010FD4
:102FB00005D0054B5B6813B1024A5068984703B0CF
:102FC0005DF804FB00000241600A002010B50446D1
:102FD0000268918953899BB20B4013F4807F03D11F
:102FE00013F4804F07D110BD4368984723684FF40E
:102FF00080729A8110BD8368984723684FF480429D
:103000009A81F0E710B50446002844D00368002BED
:103010003FD001202F222149214B9847214B1C6092
:1030200023681A6912F0010FFBD1196948F20302F3
:103030001142FAD11A8812F0020F0FD01A8892B2F8
:1030400022F0020292B21A80196948F20302114278
:10305000FAD12268136913F0020FFBD1226813889A
:103060009BB243F001031380136913F0010FFBD1EE
:1030700023681A6912F0010FFBD14FF401421A8044
:10308000196948F203021142FAD123680020186638
:1030900010BD0020BEE70020BCE700BFE0610000DB
:1030A000352B0000F800002010B5044678B1036805
:1030B0005BB101209A220749074B984722681369A0
:1030C00013F0080FFBD1906910BD0020F2E700203B
:1030D000F0E700BFE0610000352B000008B5024BAF
:1030E0001868024B984708BDF8000020CD2F00005B
:1030F00010B4838D13F0040F09D0446A14F0030F49
:10310000FBD1848DA4B224F00404A4B28485446C61
:10311000C4F30744002C35D1224B002A34D1828DD0
:1031200092B222F0200292B28285B3FBF1F14908FB
:1031300090F8283013F0040F01D001B901218AB2B0
:10314000838DDBB243EA02239BB28385C1F30F2157
:10315000838D9BB223F0C003890101F0C0011943A4
:103160008185838D9BB243F001038385838D13F0AA
:10317000020FFBD0838D9BB243F0040383855DF87F
:10318000044B7047084BC8E7828D92B242F0200290
:10319000828504FB0333B3FBF1F10029C8D0013968
:1031A000C6E700BF9919B700CC8C5B0010B5044688
:1031B00035220649003018BF0120054B984794F886
:1031C0002F3043F0020384F82F3010BDF861000067
:1031D000352B000010B5044680220B49003018BF83
:1031E00001200A4B98474FF0FF33626A591E2BB1FA
:1031F0000B4612F4801FF8D0012010BD2046044B6E
:103200009847002010BD00BFF8610000352B00007A
:10321000AD3100002DE9F041884615461F460446B1
:103220009A223949003018BF0120384B98472E02A6
:1032300006F47C5646EA080615F4807F04D015F49F
:10324000006F13D046F0010615F4804F17D094F8A4
:10325000043243F0100384F80432A7600A202C4F94
:10326000B847B3B2E3810A20B84717E015F4005F0E
:1032700002D046F00306E7E746F00206E4E794F8DA
:10328000043203F0EF0384F80432E6E740F27F22D1
:10329000134219D1238E13F0010F22D1638E9BB2FA
:1032A00015F4805FF2D040F25D221342F2D0204646
:1032B000184B9847638E9BB26FEA93236FEA832380
:1032C00063860020BDE8F0812046124B9847638E4C
:1032D0009BB26FEA93236FEA832363860020BDE8E5
:1032E000F08116F0200F04D1238E9BB243F001032E
:1032F000238615F4005F02D10120BDE8F08120464D
:10330000054B9847BDE8F081F8610000352B0000BF
:103310005D260000AD310000D531000038B50C4607
:10332000054648B331B30120DB221449144B9847BA
:103330002C6094F82F3043F0010384F82F3094F878
:103340002F3013F0010FFAD10E2384F82E300F2303
:1033500084F82930A38E9BB26FEA53236FEA43238C
:10336000A386E38E9BB26FEA93236FEA8323E386FF
:10337000002038BD0020D7E70020D5E7F861000025
:10338000352B0000F8B516461D469DF8187004460A
:10339000E0B10368C3B1012040F203121B491C4B8A
:1033A00098472468A7B194F8283043F0040384F8C0
:1033B0002830E38F13F4004F11D0012D15D0042DC8
:1033C0001BD06FF00C00F8BD0020E5E70020E3E71C
:1033D00094F8283003F0FB0384F82830E9E7002252
:1033E000314620460B4B9847E7E794F8283003F026
:1033F000FD0384F828300020F8BD94F8283043F00D
:10340000020384F828300020F8BD00BFF8610000F6
:10341000352B0000F13000000020704709B904206E
:103420007047002070470368186CC0F34050704725
:1034300000B583B04FF4A6720949003018BF0120CF
:10344000084B98470023019302E0019B013301934D
:10345000019A41F287339A42F7D903B05DF804FB31
:10346000F8610000352B000070B50D461646044685
:1034700080B1036863B1012040F259120D490E4B2F
:1034800098472068436A13F0010F05D0002070BDF3
:103490000020F1E70020EFE783899BB223F00103CE
:1034A0009BB283810021C18033462A46034CA0474A
:1034B00070BD00BFF8610000352B00001532000020
:1034C00010B5044660B1036843B1012040F26D12AB
:1034D0000449054B98472368186910BD0020F5E79B
:1034E0000020F3E7F8610000352B000038B50C46EA
:1034F000054660B1036843B101204FF4BD720F4926
:103500000F4B9847286803210BE00020F5E70020C7
:10351000F3E7110C2170110A6170A2700334013BB2
:1035200059B2002909DBCBB21A1D50F82220032919
:10353000EFD0110E04F8011BEBE738BDF861000075
:10354000352B00002DE9F0410D4690461F46BDF891
:1035500018600446002831D003686BB301204FF493
:10356000CB722149214B98472068436A13F0010F21
:1035700031D1436A13F0020F30D115F4004F1FD040
:10358000002315F4803F04D115F4003F1AD043F016
:1035900022039BB28381C7F309038380C680002284
:1035A0000023C4E902232782668243462A4620215B
:1035B0000F4CA047BDE8F0810020D0E70020CEE707
:1035C0001023DEE715F4002FE3D115F4801F08D097
:1035D00043F02203DDE70020BDE8F0810020BDE8D4
:1035E000F0810020BDE8F081F8610000352B00007B
:1035F000153200002DE9F8430F46054600285DD03E
:103600000368002B58D0012040F2D3123649374BC3
:1036100098472C682A8AB5F8128008FB02F84FEA0E
:10362000E879D5E90201B8EB000869EB0109B9F1C5
:10363000000F08BFB8F1040F42D202F0030692B2A5
:103640000023DFF8B080C04713430DD1638E03F031
:103650007003002B36D1238E13F0200FF6D0238E6B
:103660009BB243F020032386042E31D0236A721EBE
:10367000022A01D8DBB23B60F6B20027D5E902236B
:10368000B6185F41C5E902672A8A688AA2FB00234F
:103690009F4208BF964224D3638E03F07003D3B9D0
:1036A000238E13F0020FF7D0238E9BB243F0020358
:1036B00023860120BDE8F8830020A5E70020A3E7CA
:1036C0000426BCE720460A4B98470020BDE8F88353
:1036D000236A3B60D0E72046054B98470020BDE8B1
:1036E000F8830120BDE8F883F8610000352B000065
:1036F000AD310000694A0000F8B50F4605460028C4
:103700003FD00368002B3AD0012040F21322244915
:10371000244B98472C682A8A0023D5E90201224EBF
:10372000B04713430CD1638E03F070035BBB238E51
:1037300013F0100FF7D0238E9BB243F010032386B3
:103740002762D5E90223043243F10003C5E90223CD
:10375000288A6E8AA0FB06018B4208BF82421CD3D6
:10376000638E03F070039BB9238E13F0020FF7D022
:10377000238E9BB243F0020323860120F8BD002074
:10378000C3E70020C1E72046084B98470020F8BD5A
:103790002046064B98470020F8BD0120F8BD00BF29
:1037A000F8610000352B0000694A0000AD310000CF
:1037B000F8B50C460546C8B10368ABB1012040F22C
:1037C0003F222349234B98472868438E03F0700318
:1037D00073B9038E13F0200FF7D0038E9BB243F022
:1037E0002003038600230BE00020E8E70020E6E743
:1037F000194B98470020F8BD026A22600133043457
:103800007F2BF9DDD5E9022312F5007243F10003A5
:10381000C5E902232E8A6C8AA6FB0445AB4208BF89
:10382000A24212D3438E03F0700353B9038E13F0F8
:10383000020FF7D0038E9BB243F0020303860120F0
:10384000F8BD054B98470020F8BD0120F8BD00BF2A
:10385000F8610000352B0000AD3100002DE9F0418A
:103860000E461446074600B30368E3B10120DFF8B3
:103870009C8040F271224146214DA84740F27222BD
:103880004146201C18BF0120A84740F27322414640
:10389000301C18BF0120A8473B8A03FB04F5012C0C
:1038A00005D004241CE00020E1E70020DFE7B3F5A9
:1038B000007F01D0042413E0D7E9022340F2FF1077
:1038C000002102400B40134301D0042408E031469C
:1038D00038460C4B98470120BDE8F0812D1B26444B
:1038E000002DF8D031463846074B9847A542F5D20F
:1038F0003B8A93FBF4F204FB1234E4B2EEE700BF20
:10390000352B0000B1370000F5350000F8610000EC
:103910002DE9F0410E4690460746F0B10368D3B159
:103920000120184D4FF425722946174CA04740F24C
:103930009522294618F1000018BF0120A04740F247
:1039400096222946301C18BF0120A0473D8A05FB5E
:1039500008F5042405E00020E3E70020E1E72D1B43
:10396000264465B131683846084B9847A542F6D2DF
:103970003B8A93FBF4F204FB1234E4B2EFE701203C
:10398000BDE8F081F8610000352B0000F936000039
:1039900008B558B103683BB1012040F2AB2204499D
:1039A000044B9847012008BD0020F6E70020F4E70B
:1039B000F8610000352B000008B558B103683BB131
:1039C000012040F2B6220449044B9847012008BD6B
:1039D0000020F6E70020F4E7F8610000352B000036
:1039E00070B489B006466C460C4D0FCD0FC495E8F7
:1039F0000F0084E80F00002007280AD808AB03EB6B
:103A0000800353F8203CB34201D00130F4E7C0B248
:103A100000E0002009B070BC704700BF10620000D9
:103A200008B50C4B9847002343B140F247220A499E
:103A300000200A4B98470023184608BD03EB4302B9
:103A4000D100074A0A4492F820209042F4D0013372
:103A5000DBB2E9E7E139000084620000352B0000A9
:103A60001062000038B504463C4B9847E36913F0F8
:103A7000010F22D100EB4003DA00394B13445A6A9C
:103A800002F01C02E36913F0030FFBD1236813F06B
:103A9000020F0BD0236823F002032360E36913F0C5
:103AA000030FFBD1E36913F0020FFBD142F00102D7
:103AB0002260E36913F0030FFBD1E36913F0010FF8
:103AC000FBD100EB4003DA00254B13445B6A236013
:103AD000E36913F0030FFBD100EB4003DA00204B46
:103AE00013449B6A6360E36913F01F0FFBD142002C
:103AF0000244D1001A4B0B44DA6AA2605B6A13F4E9
:103B0000005F0AD113F4C04F07D100EB4003DA0085
:103B1000134B13441B8EA3810FE042000244D100DB
:103B20000F4B0B44198EA28961F30C02A28193F80A
:103B30003220A38962F34F33A381094A43001D1841
:103B4000E9000D46114491F83310A1732A4492F80C
:103B5000343084F83030002038BD00BF213A0000F6
:103B60001062000038B50C460546BB2205490030FE
:103B700018BF0120044B98472C602046034B984700
:103B800038BD00BF84620000352B0000653A00009C
:103B90000268136843F002031360D36913F0030F44
:103BA000FBD170470368996270470368986AC0B296
:103BB00070470368187E00F0010070470368187EA4
:103BC000C0F3400070470368187EC0F38000704760
:103BD0001F4B1A68517C01F007001E4B53F8200060
:103BE000C1F3C30103EB8103D96901FB00F14FF479
:103BF0007A7303FB01F31360937B9B091AD1917DC8
:103C0000537D9B0043EAA113117D43EA8123C3F353
:103C10000B030133107ED17D490041EAE01101F030
:103C2000070102318B40D17C01F00F018B409B0AD0
:103C300053607047D37D917D43EA0123517D43EA70
:103C40000143C3F3150301335B025360704700BFA8
:103C5000FC000020A062000010B582B00748026896
:103C6000947F537B126801798068003418BF012467
:103C70000094034CA04702B010BD00BFFC00002020
:103C80007D27000008B104207047F0B583B00446DA
:103C9000454BDB68002B50D0870033F92050B5F13D
:103CA000FF3F4AD0EDB26E0901A8404B984740490A
:103CB000F301CA18C958136A16695E400E405E4087
:103CC00001A83C4B984705F01F05012303FA05F5B1
:103CD000354214BF1A460022334BDB681F447B88F1
:103CE0009A4206D0304B03EB44140423A3760220FF
:103CF00047E02D4B03EB44139B7E042B09D0012B93
:103D00000ED0294B03EB44139B7E032B1DD10320C4
:103D100037E0254B03EB44140123A376022030E067
:103D2000214B03EB441302229A76234A1A610122A3
:103D30005A77002283F82E20E3E71B4B03EB441352
:103D40009B7E033BDBB2012B1DD9174B1B799C4299
:103D500026D0154B1B8E2BBB012040F22C4217495D
:103D6000174B9847104D2C7105F110036401234443
:103D70002B60144B98472C44A07E022814BF0020CF
:103D8000012003B0F0BD084B03EB441302229A76E6
:103D9000094A1A6101225A77002283F82E20D4E7BB
:103DA0000120DAE70020D8E7FC000020A52400006D
:103DB00000800041B3240000801A06003C6300002C
:103DC000352B0000593C000008B50E4B1A681289CB
:103DD000120441F2371198680B4B9847034608B913
:103DE000184608BD022241F20611064B9868064BA0
:103DF000984703460028F3D0024A12680421517301
:103E0000EEE700BFFC000020612800002DE9F04132
:103E100080460F4615461E46069C40F276321049F3
:103E2000201C18BF01200F4B9847227842EAC87225
:103E300042EA077242EAC66242EA452241F234315E
:103E4000094B9868094B9847054610B92846BDE8C4
:103E5000F081054B9868064B98472070F6E700BF45
:103E60003C630000352B0000FC00002061280000AE
:103E700091280000F0B587B0002409250BE003ABC2
:103E80002344009300232A4619461846354EB0476E
:103E900001350134E4B2032CF1D99DF80C709DF882
:103EA0000D3007EB03279DF80E3007EB03479DF815
:103EB0000F3007EB03673D461DE004AB234400933E
:103EC00000232A4619461846264EB04701350134CC
:103ED000E4B2022CF1D99DF81030FF2B3BD0222BFD
:103EE0000BD09DF81130002B38D01D44013D07F553
:103EF00080739D4234D80024EBE79DF81240002CDB
:103F0000EFD1033D052C0CD804AB234400930023D0
:103F10002A4619461846134EB04701350134E4B21B
:103F2000F0E79DF81530322B00D9322303F007015A
:103F30000D4A52F82100C3F3C30302EB8303DB698C
:103F40000A4A116803FB00F24FF47A7303FB02F391
:103F50000B60012000E0002007B0F0BD0020FBE76F
:103F60000020F9E70D3E0000A0620000FC000020E8
:103F700010B584B00DF10F030093002308221946F9
:103F800018460E4CA047034618B19DF90F20002A91
:103F900002DB184604B010BD04AB022203F8012D69
:103FA00000930123072200211846A047034600285A
:103FB000EFD0034A126804215173EAE70D3E000076
:103FC000FC00002010B584B00DF10F030093002316
:103FD0001322194618460F4CA0470146B8B19DF868
:103FE0000F3013F0010F12D004AB022203F8012DA1
:103FF00000930123132200211846A047014630B147
:10400000054B1B6801229A771A6852001A6008460D
:1040100004B010BD0D3E0000FC00002038B5054680
:10402000002303704FF4D57245F208510C4B986889
:104030000C4B984710B90124204638BD0446084B64
:104040009868094B9847B0F1FF3FF5D0C0F30B00DB
:10405000B0F5D57F01D00024EEE701232B70EBE70C
:10406000FC000020612800009128000038B50022E3
:1040700044F205511A4B98681A4B984710B901251C
:10408000284638BD0546164B9868174B984710F0E0
:10409000E04FF5D041F2883400F4FC1244F20551AF
:1040A0000F4B98680F4B984705460028E8D00C4BFB
:1040B00098680D4B9847002803DB631E74B11C46BB
:1040C000EAE710F0006F04D1054B1B680422DA7296
:1040D000D6E7034B1B680522DA72D1E70025CFE74C
:1040E000FC000020612800009128000070B5064601
:1040F00040F6340411E0164A44F22951154B9868F1
:10410000154B98470546F8B1124B9868134B9847E2
:10411000002810DB631ECCB11C46002241F237118F
:104120000C4B98680C4B9847054668B1002EE2D1BD
:104130004FF4FC12E0E710F0804F05D0054B1A68F1
:10414000D37A43F00803D372284670BD0025FBE7FD
:1041500000801F40FC000020612800009128000022
:1041600038B50D4C00E01C460C4B1A68128912043D
:1041700041F20D1198680A4B9847054650B1074B1C
:104180009868084B984710F4807F03D1631E002C79
:10419000E9D10025284638BD400D0300FC00002071
:1041A000612800009128000010B50A4B1A68128996
:1041B000120441F609319868074B9847044608B93C
:1041C000204610BD034B19680E319868034B984781
:1041D000F6E700BFFC00002061280000B9280000BD
:1041E00010B584B0284B1A681289120441F23711B5
:1041F0009868264B9847034610B9184604B010BD7E
:10420000214B986801230193009308230022204941
:10421000204CA04703460028EFD0012202A91A4BE8
:1042200098681D4B984703460028E6D0164B9868BF
:104230001A4B984703460028DFD09DF8082002F06B
:104240000F02012A0CD032B1022A0ED00E4A126897
:1042500010211173D1E70C4A126810211173CCE7B9
:10426000094A12681A211173C7E79DF80A20D2097A
:1042700004D1054A126820211173BEE7024A126870
:1042800030211173B9E700BFFC0000206128000055
:1042900033110800ED28000031290000A129000099
:1042A00030B593B040242246002102A8204B984705
:1042B00001230193009323461E4A1F491F4880682B
:1042C0001F4CA047044658B3012202A91B4B986813
:1042D0001C4B9847044618B3184B98681A4B9847DC
:1042E0000446E8B1154B9868184B984710F0800FBA
:1042F00019D19DF8183003F00F030F2B10D09DF843
:1043000025309DF8242053EA02230ED10B4DA868D6
:104310000F4B98472B6801229A771A6852001A604F
:10432000204613B030BD0024FAE70024F8E700BFB0
:10433000C14D000001FFFF8006110800FC000020B5
:10434000ED28000031290000A1290000912800007B
:1043500039280000F0B585B000248DF80F4004AE78
:10436000082306F8023D6F4D2B680127DF721C738E
:104370001C81A8686C4B984700962346062221466C
:1043800038466A4EB04722464FF48041A868684BD1
:104390009847044610B9204605B0F0BD0DF10F0056
:1043A000644B984704460028F5D0634B9847044671
:1043B0000028F0D02B68DB7A13F0010F40F08980E1
:1043C000584B1B68DB7A13F0010F09D0002245F629
:1043D0000231544B9868564B984704460028DAD06F
:1043E000002245F203114F4B9868514B9847044601
:1043F0000028D0D04B4C2568A068504B9847000C43
:1044000028812368DB7A13F0010F06D04C4B9847C4
:1044100004460028BFD04B4B9847424B1A6812897C
:10442000120443F207119868414B9847044600284C
:10443000B1D03C4B1B68DB7A13F0010F55D1394BDF
:104440001B68DB7A13F0040F03D03F4B984700281A
:1044500063D0344B197998683C4B9847032811D99D
:10446000304B1B68DB7A13F0040F44D12D4B1B68D3
:10447000DB7A13F0010F03D0354B984700284ED05C
:10448000344B9847274B9868334B984780B1254B5E
:104490001B68DB7A13F0040F33D1224B1B68DA7AE6
:1044A00012F0010F02D01B7B102B30D8294B9847FC
:1044B0001C4B1B68DB7A13F0010F3FF46CAF4FF419
:1044C000007241F21011174B9868194B9847044637
:1044D00061E79DF80F00214B9847044600287FF4C0
:1044E0006FAF2B680022DA7255E71D4B9847002802
:1044F000A5D104464FE71B4B98470028B6D1044688
:1045000049E7194B98470028C7D1044643E7174BA2
:1045100098470028CAD104463DE704463BE70446D5
:1045200039E700BFFC000020392800000D3E0000E4
:10453000612800001D4000006D400000912800002F
:10454000A9410000D13B0000753E0000E5270000B6
:10455000C93D0000593C000011280000ED4000005A
:10456000E1410000713F0000C53F0000A142000092
:1045700008B5044B197901B108BD9868024B9847FA
:10458000FAE700BFFC000020B927000030B4002388
:104590003BB1084BFF241C719860D9605A6330BC52
:1045A0007047044C04EB43140425A5760133DBB2B9
:1045B000EEE700BFFC00002010B50D4B9847044605
:1045C000012803D00B4B9847204610BD0A4B984753
:1045D00030B90A4B1B6803249C72064B9847F3E7DB
:1045E000064B1B6800229A72024B9847ECE700BF0B
:1045F000853C00007145000055430000FC00002090
:1046000008B5054B984708B1002008BD034B9847F3
:10461000034B1B68D87A08BD853C0000714500003B
:10462000FC00002008B5054B984708B1002008BDE4
:10463000034B9847034B1B68586808BD853C000036
:1046400071450000FC000020194B5B6B5BB370B53B
:1046500082B0850033F92030B3F1FF3F25D0DEB2C0
:10466000740901A8134B98471349E301CA18C958A4
:10467000136A14695C400C405C4001A80F4B9847DA
:1046800006F01F03012202FA03F3234208BF0022AF
:10469000074B5B6B1D446B889A4202D0002002B02E
:1046A00070BD0120FBE7002070470020F7E700BF46
:1046B000FC000020A524000000800041B32400007D
:1046C00070B582B00E4615461B4B9847044610B194
:1046D000204602B070BD194B9847C0B1012D1AD9C0
:1046E0001749184B1B68DB7A13F0080F00D17602CC
:1046F000144B98680123019300954FF400733246E0
:10470000114EB04748B9114B98470524E0E70F4BCD
:1047100098470524DCE70E49E3E70A4B98680D4B00
:1047200098470D4B03401BB9064B1D861D87CFE7ED
:10473000064B98470524CBE7853C0000614100000B
:1047400012111000FC000020ED280000714500004F
:104750001111080091280000000058E470B50646C9
:104760000C460D4D288E40F2A7520C49A04234BF92
:10477000002001200A4B984722463146A868094B81
:10478000984718B900222A86052070BD024A138E68
:104790001C1B1486002070BDFC0000203C63000040
:1047A000352B00003129000010B50446164B9868DF
:1047B000164B984708B9052010BD94B10022124B42
:1047C0001A86114B1B8F012B11D0002243F20C11C2
:1047D0000D4B98680E4B984768B10E4B98470020D8
:1047E00010BD094B1B8E002BEBD0002010BD094BD8
:1047F0009847002010BD002243F20C11024B98682C
:10480000034B9847E9E700BFFC000020A129000006
:104810006128000071450000F0B583B007460E46E0
:1048200015461C4B9847044610B1204603B0F0BD16
:104830003846194B9847C0B9012D1AD91749184B5A
:104840001B68DB7A13F0080F00D17602144B9868CE
:104850000123019300954FF400733246114EB04787
:1048600048B9114B98470524DFE70F4B98470724B9
:10487000DBE70E49E3E70A4B98680D4B98470D4B71
:1048800003401BB9064B1D861D87CEE7064B984794
:104890000524CAE7853C0000494600001991100034
:1048A000FC000020ED280000714500001891080070
:1048B00091280000000058E470B506460C460D4DE6
:1048C000288E40F2FA520C49A04234BF0020012049
:1048D0000A4B984722463146A868094B984718B9B1
:1048E00000222A86052070BD024A138E1C1B1486E6
:1048F000002070BDFC0000203C630000352B000050
:104900006929000010B50446144B9868144B984769
:1049100008B9052010BD94B10022104B1A860F4B28
:104920001B8F012B11D0002243F20C110B4B986806
:104930000C4B984768B90C4B9847052010BD074BA6
:104940001B8E002BEBD0002010BD074B984700209A
:1049500010BD054B9847002010BD00BFFC00002093
:10496000C9290000612800007145000008B503490D
:104970000A4604310248034B984708BD0000002056
:10498000180A00208D45000058B908B50B4611469D
:104990001846054B9847002800DB08BD4FF0FF3054
:1049A00008BD4FF0FF307047014A0000013802286F
:1049B0000BD808B50B4611461846054B98470028FA
:1049C00000DB08BD4FF0FF3008BD4FF0FF307047EF
:1049D000254A000070B50646064D2B6800219868F0
:1049E000054CA0472B6800215868A047034B1E6068
:1049F00070BD00BF08000020294E000038010020D3
:104A000008B5064B1B6833B10A46014692B21846F8
:104A1000034B984708BD002008BD00BF38010020A7
:104A20001527000008B5064B1B6833B10A4601463E
:104A300092B21846034B984708BD002008BD00BF3E
:104A400038010020E126000010B5044C2046044B3C
:104A500098472046034B984710BD00BF080A002026
:104A6000092B0000D549000053B94AB9002908BFF5
:104A700000281CBF4FF0FF314FF0FF3000F07AB933
:104A8000ADF1080C6DE904CE00F006F8DDF804E0A5
:104A9000DDE9022304B070472DE9F0478C460D464E
:104AA0000446089E002B51D18A4217466DD9B2FAAE
:104AB00082FEBEF1000F0BD0CEF1200C01FA0EF5F4
:104AC00020FA0CFC02FA0EF74CEA050C00FA0EF480
:104AD0004FEA174A250CBCFBFAF81FFA87F90AFBC4
:104AE00018CC45EA0C4508FB09F3AB420AD9ED198D
:104AF00008F1FF3280F02381AB4240F22081A8F11F
:104B000002083D44ED1AA4B2B5FBFAF00AFB1055B9
:104B100044EA054400FB09F9A14509D9E41900F16B
:104B2000FF3380F00A81A14540F2078102383C44FE
:104B3000A4EB090440EA08400021002E61D024FAC9
:104B40000EF4002334607360BDE8F0878B4207D910
:104B5000002E54D0002186E821000846BDE8F087E9
:104B6000B3FA83F1002940F08E80AB4202D3824237
:104B700000F2FA80841A65EB03050120AC46002E92
:104B80003FD086E81010BDE8F08712B90127B7FBC7
:104B9000F2F7B7FA87FEBEF1000F34D1EB1B3A0CE7
:104BA0001FFA87FC0121B3FBF2F8250C02FB183336
:104BB00045EA03450CFB08F3AB4207D9ED1908F1B0
:104BC000FF3002D2AB4200F2D1808046ED1AA3B290
:104BD000B5FBF2F002FB105543EA05440CFB00FC68
:104BE000A44507D9E41900F1FF3302D2A44500F22D
:104BF000B8801846A4EB0C0440EA08409DE7314613
:104C00003046BDE8F087CEF1200405FA0EF307FA2E
:104C10000EF720FA04F83A0C25FA04F448EA0308DF
:104C2000B4FBF2F14FEA184502FB11441FFA87FC6E
:104C300045EA044501FB0CF3AB4200FA0EF409D936
:104C4000ED1901F1FF3080F08A80AB4240F287809D
:104C500002393D44EB1A1FFA88F5B3FBF2F002FB70
:104C6000103345EA034500FB0CF3AB4207D9ED19BD
:104C700000F1FF386FD2AB426DD902383D44EB1AD8
:104C800040EA01418FE7C1F1200722FA07F88B4083
:104C900005FA01F448EA030320FA07FE4FEA134C31
:104CA000FD404EEA040EB5FBFCF94FEA1E440CFB36
:104CB00019551FFA83F844EA054509FB08F4AC428C
:104CC00002FA01F200FA01FA08D9ED1809F1FF30F1
:104CD00043D2AC4241D9A9F102091D442D1B1FFA50
:104CE0008EFEB5FBFCF00CFB10554EEA054400FBB4
:104CF00008F8A04507D9E41800F1FF3529D2A045EE
:104D000027D902381C4440EA0940A4EB0804A0FB60
:104D100002894C45C6464D4615D312D056B1BAEB62
:104D20000E0364EB050404FA07F7CB401F43CC40A5
:104D3000376074600021BDE8F0871846F8E69046B9
:104D4000E0E6C245EAD2B8EB020E69EB0305013892
:104D5000E4E72846D7E7404691E78146BEE70146AB
:104D600078E702383C4445E7084608E7A8F102081E
:104D70003D442BE7704700BF70B50D4E0D4CA41B92
:104D8000A4100025A54209D10B4E0C4C01F02CFBC0
:104D9000A41BA4100025A54205D170BD56F82530EE
:104DA00098470135EEE756F8253098470135F2E788
:104DB000F4630000F4630000F4630000F863000093
:104DC00002440346934200D1704703F8011BF9E700
:104DD0000FB40A4B13B51C6824B1A36913B920465C
:104DE00000F08AFA05AB049AA1680193204600F00E
:104DF0004DFC02B0BDE8104004B070470800002030
:104E000038B5084B1C68054624B1A36913B9204680
:104E100000F072FAA26829462046BDE8384000F04A
:104E2000E1BE00BF0800002000294FF480630CBFE2
:104E30000222002200F000B82DE9F7431D46514B35
:104E40001E6804460F46904626B1B36913B9304632
:104E500000F052FA4C4B9C4252D17468B8F1020FE8
:104E600006D0B8F1010F00F28980002DC0F28680D3
:104E70002146304600F0D6F9616B41B104F144039C
:104E8000994202D0304600F02DFB002363630023DB
:104E9000A3616360A3891B0603D52169304600F036
:104EA00021FBA38923F44A6323F00303B8F1020F23
:104EB000A3815DD001AB6A462146304600F0A6FAD8
:104EC000A3891843A0812DBB009D284600F002FB5A
:104ED000074600284ED1DDF80090A9453CD14FF09F
:104EE000FF30A38943F00203A3810023A36004F1F0
:104EF0004703236023610123636103B0BDE8F083AE
:104F0000224B9C4201D1B468A8E7214B9C4208BFC8
:104F1000F468A3E7002FD8D0B36913B9304600F086
:104F2000EBF9B8F1010F08BFA389276004BF43F074
:104F30000103A381A389276113F0080065611BD0D9
:104F400013F0010018BF6D424FF000031DBFA360B6
:104F5000A5611846A560D0E7484600F0BBFA0746B1
:104F60000028BCD0A38943F08003A3814D46D3E73A
:104F70000020B6E7A946F5E7A060BEE74FF0FF3096
:104F8000BBE700BF080000207463000094630000CA
:104F900054630000F8B50E461446054618B18369FF
:104FA0000BB900F0A9F9214B9C422AD16C68A36986
:104FB000A360A3891A072ED5236963B323692068E8
:104FC000C01A6369F6B29842374604DB2146284688
:104FD00000F028F928BBA368013BA36023685A1C92
:104FE00022601E7063690130984204D0A389DB07F8
:104FF00019D50A2E17D12146284600F013F990B191
:105000000FE00B4B9C4201D1AC68D0E7094B9C42AE
:1050100008BFEC68CBE72146284600F00DF80028D1
:10502000CCD04FF0FF373846F8BD00BF74630000A6
:105030009463000054630000324B70B51D6806464F
:105040000C4625B1AB6913B9284600F055F92E4B33
:105050009C420FD16C68B4F90C309AB215072CD46D
:10506000D00611D40922326043F04003A3814FF0EF
:10507000FF3070BD254B9C4201D1AC68EBE7244B5F
:105080009C4208BFEC68E6E7510712D5616B41B15D
:1050900004F14403994202D0304600F023FA002381
:1050A0006363A38923F02403A3810023636023693E
:1050B0002360A38943F00803A38123694BB9A38923
:1050C00003F42073B3F5007F03D02146304600F08F
:1050D000C1F9A28912F001030CD00023A360636917
:1050E0005B42A361236953B9B4F90C3013F080001B
:1050F000BAD170BD920758BF6369A360F2E7002080
:10510000F7E700BF0800002074630000946300000C
:10511000546300008A892DE9F041054610070C46CA
:105120005AD44B68002B05DC0B6C002B02DC0020F2
:10513000BDE8F081E66A002EF9D0002312F4805217
:105140002F682B6033D0606DA3895A0705D563683B
:10515000C01A636B0BB1236CC01A00230246E66AC7
:10516000216A2846B047431CA38906D129681D2916
:105170004BD82B4ACA40D60747D500226260D904D3
:105180002269226004D5421C01D12B6803B96065F5
:10519000616B2F600029CAD004F14403994202D008
:1051A000284600F09FF900206063BDE8F081216A85
:1051B00001232846B047411CC6D12B68002BC3D021
:1051C0001D2B01D0162B01D12F60B0E7A38943F02E
:1051D0004003A381BDE8F0810F69002FA7D093079A
:1051E0000E6808BF4B690F6018BF0023A6EB0708C5
:1051F0008B60B8F1000F9ADD43463A46216AA66AF1
:105200002846B047002807DCA38943F04003A38168
:105210004FF0FF30BDE8F0810744A8EB0008E8E755
:105220000100402038B50B6905460C46DBB118B1CA
:1052300083690BB900F060F80C4B9C4209D16C6893
:10524000B4F90C307BB121462846BDE83840FFF761
:1052500061BF074B9C4201D1AC68F1E7054B9C4212
:1052600008BFEC68ECE7002038BD00BF74630000A5
:105270009463000054630000014900F0A9B800BF26
:1052800025520000002310B504460360436083608C
:1052900081814366C28103614361836119460822AB
:1052A0005C30FFF78DFD054B6362054BA362054B38
:1052B000E362054B2462236310BD00BF715C0000F4
:1052C000935C0000CB5C0000EF5C000070B54A1EF0
:1052D000682555430E4605F1740100F051F9044666
:1052E00040B1002180E842000C30A06005F1680266
:1052F000FFF766FD204670BD836910B5044633BBD9
:105300008364C3640365124B124A1B68826298422D
:1053100004BF0123836100F01FF86060204600F0A5
:105320001BF8A060204600F017F80022E06004217E
:105330006068FFF7A7FF01220921A068FFF7A2FF1D
:1053400002221221E068FFF79DFF0123A36110BD37
:105350005063000079520000F8B51C4B1E68B36919
:10536000074613B93046FFF7C7FF4836B46873687D
:10537000013B03D5336833B13668F7E7B4F90C5015
:105380006DB16834F4E704213846FFF79FFF3060C1
:105390000028F1D10C233B6004462046F8BD4FF6AF
:1053A000FF73E3810123A38165662560A5606560C5
:1053B00025616561A5610822294604F15C00FFF7BB
:1053C000FFFC6563A563A564E564E6E75063000040
:1053D0002DE9F8438046894600F14804002614B9B7
:1053E0003046BDE8F883A5686768013F01D52468A9
:1053F000F5E7AB89012B07D9B5F90E30013303D09E
:1054000029464046C84706436835EEE770B50E4664
:10541000B1F90E10002990B014461D4607DA00239A
:105420002B60B3891A0610D44FF480630EE001AAF2
:1054300000F084FC0028F2DB029A02F47042A2F52C
:1054400000535A425A412A60EEE74023002023606D
:1054500010B070BD8B8973B59D0706460C4607D505
:1054600004F14703236023610123636102B070BD2F
:1054700001AB6A46FFF7CAFF00990546304600F0C7
:105480007FF848B9B4F90C309A05EFD423F0030340
:1054900043F00203A381E3E70D4BB362A3892060CD
:1054A00043F08003A381009B6361019B20615BB19A
:1054B000B4F90E10304600F053FC28B1A38923F054
:1054C000030343F00103A381A3891D43A581CDE715
:1054D00079520000024B0146186800F051B800BF35
:1054E0000800002038B50546002945D051F8043C95
:1054F0000C1F002BB8BFE41800F0AAFC1F4A136869
:10550000104633B9636014602846BDE8384000F0A7
:10551000A0BCA3420CD921686218934204BF1A6848
:105520005B68636004BF521822600460ECE71346B6
:105530005A680AB1A242FAD919685818A0420BD188
:1055400020680144581882421960DDD11068526801
:105550005A6001441960D7E702D90C232B60D3E7C6
:10556000206821188A4204BF11685268626004BF33
:10557000091821605C60C7E738BD00BF3C0100200E
:1055800070B5CD1C25F0030508350C2D38BF0C2552
:10559000002D064601DBA94203D90C23336000200D
:1055A00070BD00F055FC234A1468214691B9224C85
:1055B00023681BB9304600F04BFB2060294630467B
:1055C00000F046FB431C26D10C233360304600F02C
:1055D00040FCE4E70B685B1B1AD40B2B0FD90B6064
:1055E000CD50CC18304600F034FC04F10B00231DE4
:1055F00020F00700C31A1BD05A42E25070BD8C4203
:105600000DBF63684B686360136018BF0C46E9E721
:105610000C464968CAE7C41C24F00304A04205D024
:10562000211A304600F014FB0130CDD02560D9E7B7
:1056300070BD00BF3C010020400100209368013B89
:10564000002B10B4936008DA9469A34202DBCBB25A
:105650000A2B02D110BCFFF79DBC1368581C1060C8
:105660001970C8B210BC7047F8B506460F4614460C
:10567000D518AC4201D1002007E03A4614F8011BCE
:105680003046FFF7DBFF431CF3D1F8BD2DE9F04FA7
:105690009DB00C4617460393064618B183690BB9B3
:1056A000FFF72AFE7C4B9C4257D17468A3891807E8
:1056B0005DD52369002B5AD00023099320238DF850
:1056C000293030238DF82A304FF0010BB84645467B
:1056D00015F8013B002B55D1B8EB070A0BD0534608
:1056E0003A4621463046FFF7BFFF013000F0C48044
:1056F000099B5344099398F80030002B00F0BC80BC
:1057000000234FF0FF3204930793059206938DF820
:1057100053301A9305222978604800F049FB05F1BF
:105720000108049B002831D1D90644BF20228DF8FE
:1057300053201A0744BF2B228DF853202A782A2A97
:105740002CD0079A00210A20A846013598F800308D
:10575000303B092B6DD971B326E0514B9C4201D1EE
:10576000B468A3E74F4B9C4208BFF4689EE721460C
:105770003046FFF761FC00289ED04FF0FF301DB08F
:10578000BDE8F08F252BA7D0A846A0E7434A801A92
:105790000BFA00F0184304904546BBE7039A111D2D
:1057A00012680391002A01DB079204E0524243F0A1
:1057B00002030792049398F800302E2B10D198F82A
:1057C00001302A2B08F1010137D1039B1A1D1B68F8
:1057D0000392002BB8BF4FF0FF3308F10208059386
:1057E000314D98F800100322284600F0E1FA40B14C
:1057F0004023401B03FA00F0049B0343049308F189
:10580000010898F8001029488DF82810062208F1A0
:10581000010700F0CDFA002834D0254B03BB039BD1
:10582000073323F0070308330393099B4B44099381
:105830004CE700FB0232012186E70023059318465E
:105840000A258846013198F80020303A092A03D900
:10585000002BC5D00590C3E705FB00200123F0E72E
:1058600003AB00932246134B04A93046AFF30080EC
:10587000B0F1FF3F8146D8D1A3895B063FF57DAFEC
:1058800009987CE703AB009322460A4B04A93046F3
:1058900000F088F8ECE700BF74630000B463000018
:1058A0009463000054630000BA630000BE6300000C
:1058B00000000000695600002DE9F04791461F46A0
:1058C0008A680B69DDF820809342B8BF1346C9F897
:1058D000003091F8432006460C4612B10133C9F856
:1058E00000302368990642BFD9F800300233C9F866
:1058F0000030256815F0060507D104F1190AE368A0
:10590000D9F800209B1A9D4229DB94F84330226885
:10591000003318BF012392062ED404F14302394606
:105920003046C047013021D02368E568D9F800200F
:1059300003F00603042B08BFAD1AA36822690CBF4D
:1059400025EAE57500259342C4BF9B1AED184FF078
:1059500000091A344D451BD10020BDE8F087012312
:10596000524639463046C047013003D14FF0FF3030
:10597000BDE8F0870135C2E7E1185A1C302081F8F4
:105980004300224494F8451082F843100233C4E7E0
:105990000123224639463046C0470130E6D009F19E
:1059A0000109D7E72DE9F04317460A7E85B06E2A34
:1059B000984606460C460C9B01F1430E00F0BC8055
:1059C0001AD8632A2ED00AD8002A00F0C880582A94
:1059D00000F08A8004F1420584F842202AE0642A1B
:1059E00001D0692AF6D121681A6811F0800F23D0FE
:1059F000111D1960136827E0732A00F0B48008D8DD
:105A00006F2A2AD0702AE5D10A6842F020020A6083
:105A100003E0752A21D0782ADCD1782284F8452049
:105A20006E4964E01A6801F14205111D196013689E
:105A300084F842300123A3E011F0400F02F1040189
:105A40001960D7D0B2F90030002B03DA2D225B4267
:105A500084F8432062490A2217E02068196810F090
:105A6000800F03D0081D18600B6806E010F0400F8F
:105A700001F104001860F7D00B8859496F2A14BF50
:105A80000A220822002084F843006568A560002DE2
:105A9000C0F29C80206820F004002060002B3FD1E1
:105AA000002D40F095807546082A0BD12368DA074F
:105AB00008D5236962689A42DEBF302305F8013CAD
:105AC00005F1FF35AEEB05032361CDF800803B46C1
:105AD00003AA21463046FFF7EFFE013055D14FF0C3
